:0300000002131DCB
:0C131D00787FE4F6D8FD75812902136486
:10000300202044414D20434C4F434B205631202068
:10001300002032300020002020414C2020002B2BD8
:100023002B2B2B2B2B2B2B2B2B2B2B2B2B2B002A49
:100033002928002A432020202000534554204769C3
:1000430061792020005345542050687574202000A6
:100053005345542047696F202020005345542054B2
:10006300687520202000534554204E676179202075
:1000730000534554205468616E6720005345542053
:100083004E616D20202000000000000000000000F1
:10009300000000000000000000000000000000005D
:1000A300000000000000000000000000000000004D
:1000B300000000000000000000000000000000003D
:1000C300000000000000000000000000000000002D
:1000D30000000000000000000C1E12121E0C0000A5
:1000E300000000000000000080E06000000000004D
:1000F30000000000000000000000000000000040BD
:100103006030180C0602003C7E524A467E3C0000DA
:1001130044447E7E40400044667252525E4C00244A
:1001230066424A4A7E34001058547E7E5050002E58
:100133006E4A4A4A7A32003C7E4A4A4A7A3200067A
:100143000662721A0E0600347E4A4A4A7E34004C16
:100153005E5252527E3C00000066660000000000C2
:1001630040662600000000000000000000000000C0
:10017300000000000000000000000000000000007C
:100183000000000000000000000000000000007CF0
:100193007E1212127E7C00427E7E4A4A7E34003CEE
:1001A3007E424242662400427E7E42427E3C0042C0
:1001B3007E7E4A4A426600427E7E4A0A0206003C2E
:1001C3007E4242527274007E7E0808087E7E0000E2
:1001D30000427E7E420000206040427E3E0200429A
:1001E3007E7E081C766200427E7E42404060007E36
:1001F3007C0810087C7E007E7E0418207E7E003CF6
:100203007E4242427E3C00427E7E52121E0C003CE5
:100213007E4242327E5C00427E7E12325E4C00247D
:100223006E4A5A527624000602427E7E4206003E01
:100233007E4040407E3E000E1E3060301E0E007E2B
:100243007E2010207E7E0042663C183C66420006FB
:100253000E4878784E06004662725A4E4662000097
:10026300000000000000000000000000000000008B
:10027300000000000000000000000000000000007B
:10028300000000000000000000000000000000204B
:100293007454543C784000427E3E484878300038DD
:1002A3007C4444446C2800307848483E7E40003803
:1002B3007C5454545C5800487C7E4A020604004C2B
:1002C3005E52527C3E0200427E7E1008787000002F
:1002D30000487A7A40000020604040427E3E00425F
:1002E3007E7E10386C44000000427E7E4000007C1D
:1002F3007C08300C7C78007C7C0404047C78003817
:100303007C4444447C3800447C7C54141C08000C1A
:100313001E12527C7E4200447C784C040C08004838
:100323005C54545474240004043E7E446424003C0E
:100333007C40403C7C40001C3C6040203C1C003C1A
:100343007C4030407C3C00446C3810386C44004C9A
:100353005C5050507C3C00446474545C4C4400003A
:10036300000000000000000000000000000000008A
:10037300000000000000000000000000000000007A
:10038300000000000000000000000000000000006A
:10039300000000000000000000000000000000005A
:1003A300000000000000000000000000000000004A
:1003B300000000000000000000000000000000003A
:1003C300000000000000000000000000000000002A
:1003D300000000000000000000000000000000001A
:1003E30000000000000000001E1E1E1E0EFEFE0088
:1003F300FEFEFEFCF8F0E000F8FCFEFE1E0E0EFF13
:10040300FFFFFFFFFFC3C300F8FCFEFE1E0E8E00BE
:100413003838383838FEFE00383C3E3E1E0E0E009B
:10042300383C3E1E0ECECE00FEFEFEFE0000000057
:10043300FEFEFEFEFECECE00F8FCFEFE9ECECE00FD
:100443001E1E1E1E0E0E0E00387CFEFEDECECE00DD
:10045300F8FCFEFEDE8E8E0000000000183C3C001F
:100463000000000000000000000000000000000089
:100473000000000000000000000000000000000079
:100483000000000000000000000000000000000069
:100493000000000000000000000000000000000059
:1004A3000000000000000000000000000000000049
:1004B300000000000000000000000000000000FE3B
:1004C300FE0E1E1E1E1E00C08000FEFEFEFE000E5F
:1004D3000E1E3E3E3C3800C3C3FFFFFFFFFFFFCEAF
:1004E300EE7EFEFEFCF800FEFE0000000000000EA3
:1004F3000E9EFEFEFCF800CECEDEFEFE7C3800FE35
:10050300FEFEFE00000000CECECEDEDE9E1E00CE3E
:10051300CEDEDEDE9C18008ECEEEFEFE7E3E00CEEC
:10052300CEDEFEFE7C38008E8EDEFEFEFCF8003C46
:100533003C18000000000000000000000000000064
:1005430000000000000000000000000000000000A8
:100553000000000000000000000000000000000098
:100563000000000000000000000000000000000088
:100573000000000000000000000000000000000078
:100583000000000000000000000000000000000068
:10059300000000000000000000000000707F7F00EA
:1005A3007F7F7F7F000103001F3F7F7F787070FF95
:1005B300FFFFFFFFFF8787001F3F7F7F7E7773006B
:1005C30070707070707F7F00607078787C7C7E00C4
:1005D3001C3C7C787071710003070707070707004D
:1005E3001C3D7D7D797171001F3F7F7F7B717100A1
:1005F30000000000007E7F001E3F7F7F7B71710043
:1006030018397B7B7B73730000000000183C3C00AF
:1006130000000000000000000000000000000000D7
:1006230000000000000000000000000000000000C7
:100633000000000000000022363E1C080E1121417C
:100643008E5121418A4929190E08083E3E1C082C67
:1006530024242C24242C183C3C2C24242C24243CFB
:100663007EFFFFFFFF7E3C10101010101010107F54
:100673007F700000000000070F1F3F7F7F7F007027
:1006830070787C7C3C1C008787FFFFFFFFFFFF71B6
:1006930070787F7F3F1F007F7F707070707000766F
:1006A3007773737171700071717B7F7F3F1E007F61
:1006B3007F7F7F0707070071717B7F7F3F1F00717B
:1006C300717B7F7F3F1F007F7F030100000000716C
:1006D300717B7F7F3F1E0073737B7F7F3F1F003CD7
:1006E3003C1800000000001B0C1112030415060740
:1006F30018091A1B0C111203140415060718091AFA
:100703000B1C1112031405160708190A1B0C1112EE
:10071300031415061708091A0B1C011202131405FA
:10072300160718091A0B1C011203140516170819CA
:100733000A1B0C110213040516170718190A1B0CC0
:100743001102130405160718191A0B1C11020314BE
:1007530005061708190A1B1C1112030415050617B1
:1007630008190A1B1C1102130415060718091A0B92
:100773001C1102131405160708190A1B0C11021386
:10078300140415061708190A1B0C11021304151675
:100793000718091A0B1C0112031405160718190967
:1007A3001A0B1C0112030415061718190A1B0C1146
:1007B30002130405160718190A1B1C01120314055A
:1007C30006160718091A1B1C01120314050617083D
:1007D300190A1B1C1102130415060718090A1B1C0E
:1007E300011213140415060718091A0B1C00000044
:1007F3003B019D031D047F05E2076208C40A440B05
:10080300A70D090E890FEB114D12CD143015B0173A
:1008130012187519F51B571CB91E391F9B20FE2290
:100823007E23E0256026C2282429A42B072C692DCA
:10083300E92F4C30CC322E33903510367237D43901
:10084300543AB73C1A3D9A3EFC407C41DE43404457
:10085300C04622478549054A684BE74D4A4EAC508E
:100863002B518E52F0547055D3573558B55A175BE8
:10087300975CF95E5C5FDC613E62A164216583671E
:1008830003686569C76B476CAA6E0C6F8C70EF7257
:100893005173D1753376B3781579787AF87C5A7DAC
:1008A300BD7F3C809E821E838084E3866387C689E6
:1008B300288AA88C0A8D6C8EEC0019018702F40437
:1008C3006105CE073C08A90A160B830CF10E5E0FD7
:1008D300CB113812A61413158016ED185B19C81B1B
:1008E300351CA21E101F7D20EA225723C525322660
:1008F3009F280C297A2AE72C542DC12F2F309C32A4
:1009030009337634E4365137BE392B3A993C063DE8
:10091300733EE0404E41BB4328449546034770482D
:10092300DD4A4A4BB84D254E924FFF516D52DA5472
:100933004755B45722588F59FC5B695CD75E445FB7
:10094300B1611E628C63F9656666D3684169AE6BFB
:100953001B6C886DF66F6370D0723D73AB75187640
:100963008577F279607ACD7C3A7DA77F1580828185
:10097300EF835C84CA863787A489118A7F8BEC8DC9
:10098300598EC600000002000E001B002700330032
:1009930040004C005900650071007E008A009600FB
:1009A300A300AF00BC00C800D400E100ED00F901D2
:1009B300060112011E012B013701440150015C01A4
:1009C3006901750181018E019A01A701B301BF017C
:1009D300CC01D801E401F101FD0209021602220251
:1009E3002F023B024702540260026C027902850225
:1009F30092029E02AA02B702C302CF02DC02E802FD
:100A0300F40301030D031A03260332033F034B03CD
:100A13005703640370037D0389039503A203AE03A5
:100A2300BA03C703D303DF03EC03F804050411047B
:100A33001D042A04360442044F045B04680474044E
:100A430080048D049904A504B204BE04CA04D7002B
:100A5300000000001F003B005A0078009700B5001B
:100A6300D400F301110130014E00000000001F000B
:100A73003C005B0079009800B600D500F401120138
:100A830031014F01F401E501D601C201AE01950127
:100A93008A0180017001600156014C0142013B0152
:100AA30034012C0124011E0113010C010601000075
:100AB300F600EC00E200D800D400CA00BC00B40089
:100AC300AC00A5009C00960091008C008A00870072
:100AD30082007D00780073006E006900640062008C
:070AE30061005D005A00559F
:0318FE00010900DD
:0F18D700EFC4540F75F00AA4FEEF540F2EFF223A
:1018B200EF75F00A84C454F0FEEF75F00A84E5F087
:0318C2002EFF22D4
:0610D3008F218C228D2309
:1010D9001218D78F21AF231218D77522008F23AF8B
:1010E900031218D77A00AB077C007D047E00121228
:1010F9007CED4C7012E52325E0FFE52233FE746C8C
:101109002FF582740A8010E52325E0FFE52233FEDE
:1011190074522FF582740A3EF583E493FC740193AB
:10112900FDEB25E0FFEA33FE74BC2FF58274083E1F
:10113900F5837401932DFFE4933CFE7C00EF252198
:10114900F525EC3EF524E525152570021524EB253A
:10115900E0FFEA33FE74F02FF58274073EF583E46D
:1011690093FC740193FDC3E5259DF525E5249CF5C4
:101179002474862FF58274093EF583E493F5267469
:101189000193F527C3E5279406E52694015046E522
:101199002545246040AE24AF25E4FCFD7B507AC38D
:1011A900F9F8C31212B2402D74EA2527F5827406A4
:1011B9003526F583E493D39410400474E2800274D5
:1011C900E32525F52574FF3524F5240527E5277042
:1011D900B3052680AFE5254524702574E92527F553
:1011E9008274063526F583E493FFD39410400AEF01
:1011F90024F0F52975281E803E8F2975281D803712
:1012090074E92527F58274063526F583E493FFD31F
:101219009410400DEF24F0F529E525241EF52880CA
:101229001674E92527F58274063526F583E493F5C6
:1012390029E525241DF528AF281218B28F28AF29D2
:101249001218B28F29EF752700F526E5282527F50D
:0912590027E43526F526FEAF2737
:011262002269
:06167D0005087F0A7E0053
:10168300EF1FAA0670011ED39400EA94004013E4EE
:10169300FCFDC3ED9490EC940150E50DBD00010CED
:0216A30080F0D5
:0116A5002222
:1017AA00E4FDFCC3ED9FEC9E50070DBD00010C80CB
:0F17BA00F2E4FFFE0FBF00010EEF647B4E70F5EF
:0117C90022FD
:10189A00E4FDFCC3ED9FEC9E500DE4FB0BBB7DFC0D
:0718AA000DBD00010C80ECF4
:0118B1002214
:0718C5001218807F647E0011
:0B18CC00EF1FAC0670011E4C70F622EE
:1015DE003EF583E5822BF582E43583F583E493FDB6
:0215EE007F017B
:1015F000C2A3EF6004D2A18002C2A1E4FFED20E704
:1016000004C2A28002D2A2C2A0D2A0ED25E0FD0FAA
:07161000BF08EAB2A1D2A35A
:0116170022B0
:041650007D077F0390
:10165400AE07AC05EE75F008A4FE540FFDE4FF12CE
:1016640015F0EEC454074410FDE4FF1215F0EC54D9
:091674000F44B0FDE4FF0215F083
:0D148F0075F06484AFF0EFC4540F2430FFFB
:02149C00AC079B
:10149E00C3EC648094A0402BD3EC648094BA5023A8
:1014AE0074E02CFCE4FBECFF3395E0FEEF7803C315
:1014BE0033CE33CED8F9248AF58274031215DE0B9F
:0314CE00BB08E375
:0114D10022F8
:0D14D20075F06484AFF0EFC4540F2430FFB8
:0214DF00AC0758
:1014E100C3EC648094A0402BD3EC648094BA502365
:1014F10074E02CFCE4FBECFF3395E0FEEF7803C3D2
:1015010033CE33CED8F92462F58274041215DE0B82
:03151100BB08E331
:0115140022B4
:0D15150075F06484AFF0EFC4540F2430FF74
:02152200AC0714
:10152400C3EC648094A0402BD3EC648094BA502321
:1015340074E02CFCE4FBECFF3395E0FEEF7803C38E
:1015440033CE33CED8F9243AF58274051215DE0B66
:03155400BB08E3EE
:011557002271
:0D15580075F06484AFF0EFC4540F2430FF31
:02156500AC07D1
:10156700C3EC648094A0402BD3EC648094BA5023DE
:1015770074E02CFCE4FBECFF3395E0FEEF7803C34B
:1015870033CE33CED8F92412F58274061215DE0B4A
:03159700BB08E3AB
:01159A00222E
:1016F6008B218A228923AB21AA22A9231212636095
:10170600130523E5237002052214F9121263FF1252
:05171600156580E222D0
:1017CA00E4FBAD03E4FF121654E4FEE4FD7F0112CC
:1017DA0015F00EBE82F50BBB08E8E4FDFF021654B5
:0D159B0075F06484AFF0EFC4540F2430FFEE
:0215A800AC078E
:1015AA00C3EC648094A0402BD3EC648094FF502356
:1015BA0074E02CFCE4FBECFF3395E0FEEF7803C308
:1015CA0033CE33CED8F9248AF58274001215DE0B95
:0315DA00BB08E368
:0115DD0022EB
:0213FD00AC073B
:1013FF00C3EC648094A0403ED3EC648094FF5036DD
:10140F0074E02CFCE4FBECFF3395E0FEEF7803C3B4
:10141F0033CE33CED8F9248AF58274003EF583E5B6
:10142F00822BF582E43583F583E493F4FD7F01127B
:06143F0015F00BBB08D004
:011445002284
:10171B008B218A228923AB21AA22A923121263606F
:10172B00130523E5237002052214F9121263FF122D
:05173B0013FD80E22215
:101740008B218A228923AB21AA22A923121263604A
:10175000130523E5237002052214F9121263FF1208
:0517600015A880E22243
:1017EA007DE2E4FF1215F07F647E0012189A7DAF45
:0F17FA00E4FF1215F07D2FE4FF1215F00217CA5D
:1016A600E4FDD2907F08FE1218CCC2907F507E00D7
:1016B6001218CCD2907F0E7E001218CCA290E43382
:0816C600FD7F147E000218CC28
:10182800E4FB7D08C290EBC313FBD29030900343D6
:0D18380003807F047E001218CCDDE9AF03B1
:011845002280
:02188000AD07B2
:101882007B08C290ED1392907F057E001218CCD295
:0718920090EDC313FDDBEB39
:01189900222C
:1013A900E4FAFFF5211216A67FCC1218807F4412A9
:1013B90018C51216A67FCC1218807FBE1218C51246
:1013C9001828AA07121828EFC454F0F517EA54F0A0
:1013D900C4540F2517F517EA540FF518EFFEAD029F
:1013E9007C00E42DFFEC3EC4F854F0C8EFC4540F60
:0313F90048F512A2
:0113FC0022CE
:0C18E600D2B0D2B10000C2B100C2B022EA
:0C18F200C2B000C2B100D2B000D2B122DE
:10176500E4FEEF3392B1D2B00000C2B0EF25E0FF46
:101775000EBE08EED2B1D2B00000A2B19200C2B046
:0317850000A200BF
:01178800223E
:1016CE00D2B1E4FED2B0EF25E0FFA2B1E43342077F
:1016DE00C2B00EBE08EEC2B0A20092B1D2B00000EF
:0716EE00C2B000D2B1D2B07E
:0116F50022D2
:101618001218E67FD0121765E4FF1217651218E654
:101628007FD1121765E4FDFCC2001216CE740B2D93
:10163800F8A6070DBD00010CED64064C70EAD20057
:081648001216CE8F110218F2F8
:101809001218E67FD0121765E4FF121765E4FD741C
:0F1819000B2DF8E6FF1217650DBD07F30218F24D
:10144600E50C70047F0180027F00E50D70047E01CB
:1014560080027E00EE5FFFE50BC3940350047E011D
:1014660080027E00EE5FFF3000047E0180027E0077
:10147600EE4F6014E510FD7C00E511FB7A00AF0F1E
:081486001210D3EFF5168E14CD
:01148E00223B
:061846007B59E4FDAF0B2D
:10184C00EFC39B4004AF05800EEF540FFEBE09069C
:08185C00EF2407FF80010F22B9
:061864007B59E4FDAF0B0F
:10186A00EFD39D5004AF03800CEF540F7006EF24A2
:06187A00F9FF80011F22AE
:100E220020B75712167F30B7030210D220B7047FC3
:100E32000180027F00E508C3941450047E01800201
:100E42007E00EE5F600512167D80E112167FE508D6
:100E5200C3941450130509E5099407400BE4F509FE
:100E6200121809D200121446E508C3941450030262
:100E720010D2E4F509D20002144630B603020FA9DB
:100E820012167F30B6030210D220B6047F01800210
:100E92007F00E508C3941450047E0180027E00EEB8
:100EA2005F600512167D80E112167FE508C3941477
:100EB2004076E509B401071218468F0B806AE509EE
:100EC200B4020D7B59E4FDAF0C12184C8F0C805804
:100ED200E509B4030D7B23E4FDAF0D12184C8F0D11
:100EE2008046E509B4040D7B077D01AF0E12184C54
:100EF2008F0E8034E509B4050D7B317D01AF0F12F1
:100F0200184C8F0F8022E509B4060D7B127D01AFCC
:100F12001012184C8F108010E509B4070B7B207D4E
:100F220001AF1112184C8F11E508C394144003024B
:100F320010D2E509B401061218468F0B22E509B456
:100F4200020C7B59E4FDAF0C12184C8F0C22E50900
:100F5200B4030C7B23E4FDAF0D12184C8F0D22E578
:100F620009B4040C7B077D01AF0E12184C8F0E22C0
:100F7200E509B4050C7B317D01AF0F12184C8F0FC0
:100F820022E509B4060C7B127D01AF1012184C8FBA
:100F92001022E509640760030210D27B207D01AFB5
:100FA2001112184C8F112230B5030210CF12167F86
:100FB20030B5030210D220B5047F0180027F00E524
:100FC20008C3941450047E0180027E00EE5F600527
:100FD20012167D80E112167FE508C394144076E56F
:100FE20009B401071218648F0B806AE509B4020D77
:100FF2007B59E4FDAF0C12186A8F0C8058E509B4D6
:10100200030D7B23E4FDAF0D12186A8F0D8046E5B8
:1010120009B4040D7B077D01AF0E12186A8F0E8092
:1010220034E509B4050D7B317D01AF0F12186A8FCB
:101032000F8022E509B4060D7B127D01AF10121854
:101042006A8F108010E509B4070B7B207D01AF1178
:1010520012186A8F11E508C394145074E509B4019B
:10106200061218648F0B22E509B4020C7B59E4FDC9
:10107200AF0C12186A8F0C22E509B4030C7B23E42F
:10108200FDAF0D12186A8F0D22E509B4040C7B071F
:101092007D01AF0E12186A8F0E22E509B4050C7B92
:1010A200317D01AF0F12186A8F0F22E509B4060CC9
:1010B2007B127D01AF1012186A8F1022E509B40766
:1010C2000F7B207D01AF1112186A8F1122E4F508FF
:0110D20022FB
:10178900121618E50B30E718750B01750C40750D2D
:1017990006750E03750F01751012751115121809CA
:0117A900221D
:100AEA00121789D2001214467FF47E011217AA1235
:100AFA0017EA7F647E001217AA1217CA7F2C7E019A
:100B0A001217AAE509700B1216181213A9C20012BD
:100B1A001446E4FDFF1216547BFF7A00790312177C
:100B2A001B7D01E4FF121654E50D12148FE50D1218
:100B3A0014D2E50D121497E50D1214DA7F3A121445
:100B4A009C7F3A1214DFE50C12148FE50C1214D2B2
:100B5A00E50C121497E50C1214DA7F3A12149C7FF2
:100B6A003A1214DFE50B12148FE50B1214D2E50BBF
:100B7A00121497E50B1214DA7D02E4FF121654E5FB
:100B8A000D121515E50D121558E50D12151DE50D79
:100B9A001215607F3A1215227F3A121565E50C127A
:100BAA001515E50C121558E50C12151DE50C121554
:100BBA00607F3A1215227F3A121565E50B12151558
:100BCA00E50B121558E50B12151DE50B1215607D84
:100BDA0004E4FF1216547BFF7A00791412171B7D66
:100BEA00047F03121654E51175F06484AFF0EFC464
:100BFA00540F2430FF1213FDE511540F2430FF1255
:100C0A0013FD7D047F051216547BFF7A00791812B2
:100C1A00171B7D047F0A1216547BFF7A00791A1279
:100C2A00171B7D047F06121654E50EB401047F2EAD
:100C3A0080027F2C12149C7D047F07121654E50E45
:100C4A00B401047F2E80027F2C1214DF7D057F06FB
:100C5A00121654E50EB401047F2E80027F2C121561
:100C6A00227D057F07121654E50EB401047F2E80FB
:100C7A00027F2C1215657D047F08121654E50EB406
:100C8A0001047F2D8007E50E540F2430FF12149CB7
:100C9A007D047F09121654E50EB401047F2D8007E6
:100CAA00E50E540F2430FF1214DF7D057F0812165B
:100CBA0054E50EB401047F2D8007E50E540F24304D
:100CCA00FF1215227D057F09121654E50EB40104A0
:100CDA007F2D8007E50E540F2430FF1215657D0520
:100CEA00E4FF121654E50F12159BE50F1215A37FA8
:100CFA002F1215A87D057F03121654E51012159BB5
:100D0A00E5101215A37D057F0B121654E516121570
:100D1A009BE5161215A37F2F1215A87D057F0E12CB
:100D2A001654E51412159BE5141215A37D06E4FF6B
:100D3A001216547BFF7A0079211216F6E5097052D1
:100D4A001216507BFF7A0079321216F67D077F075A
:100D5A00121654E51775F06484E5F075F00A8424D8
:100D6A0030FF1215A8E51775F00A84E5F02430FF64
:100D7A001215A87F2C1215A8E51875F06484E5F001
:100D8A0075F00A842430FF1215A87BFF7A007936A1
:100D9A00803EE509B4010B1216507BFF7A00793DBB
:100DAA00802EE509B4020B1216507BFF7A007948AF
:100DBA00801EE509B4030B1216507BFF7A007953A3
:100DCA00800EE509B4040E1216507BFF7A00795E94
:100DDA001217408036E509B4050B1216507BFF7ACC
:100DEA00007969801EE509B4060B1216507BFF7A5A
:100DFA00007974800EE509B407111216507BFF7A48
:100E0A0000797F121740D2001214467FC87E001262
:080E1A0017AA120E22020B0DB3
:10132900020AEAE493A3F8E493A34003F68001F2E6
:1013390008DFF48029E493A3F85407240CC8C333C5
:10134900C4540F4420C8834004F456800146F6DF94
:10135900E4800B01020408102040809018FEE47E0E
:10136900019360BCA3FF543F30E509541FFEE49389
:10137900A360010ECF54C025E060A840B8E493A350
:10138900FAE493A3F8E493A3C8C582C8CAC583CA7B
:10139900F0A3C8C582C8CAC583CADFE9DEE780BE33
:0119010000E5
:10126300BB010689828A83E0225002E722BBFE0289
:09127300E32289828A83E49322BC
:10127C00C2D5EC30E709B2D5E4C39DFDE49CFCEE8D
:10128C0030E715B2D5E4C39FFFE49EFE1212C8C32B
:10129C00E49DFDE49CFC80031212C830D507C3E426
:0612AC009FFFE49EFE22FC
:1012B200EB9FF5F0EA9E42F0E99D42F0EC6480C8B3
:0612C20064809845F02253
:1012C800BC000BBE0029EF8DF084FFADF022E4CC0A
:1012D800F875F008EF2FFFEE33FEEC33FCEE9DECD3
:1012E800984005FCEE9DFE0FD5F0E9E4CEFD22ED19
:1012F800F8F5F0EE8420D21CFEADF075F008EF2F63
:10130800FFED33FD4007985006D5F0F222C398FD53
:051318000FD5F0EA22F0
:00000001FF
